:100000004FC000006BC0000069C0000067C0000066
:1000100065C000003CC60000DCC5000093C50000C0
:100020005DC000005BC0000057C5000057C0000065
:1000300055C0000053C0000051C000004FC0000078
:100040002DC500004BC0000049C0000047C00000A3
:1000500045C0000043C0000041C000003FC0000098
:100060003DC000003BC0000039C0000037C00000A8
:1000700035C0000033C0000084C600002FC000005F
:100080002DC000002BC0000029C00000FA030804A6
:1000900016042404320440044E045C046A04780408
:1000A00011241FBECFEFD0E1DEBFCDBF12E0A0E034
:1000B000B1E0E6EFF8E100E00BBF02C007900D925F
:1000C000A838B107D9F723E0A8E8B2E001C01D9233
:1000D000AC35B207E1F75CD70C94790C91CF84EA88
:1000E00080937400E4E7F0E080818823ECF780914E
:1000F0007100887F883011F0803119F480E090E041
:1001000008958FEF9FEF089584E98093740080E055
:1001100090E00895660F771F642B6093730084E866
:10012000809374008FE19EE4E4E7F0E002C0019761
:1001300090F020812223DCF7181619067CF48091B8
:100140007100887F883169F0803459F090E0919592
:100150008195910908958BEF9FEF08958BEF9FEFA5
:10016000089580E090E00895452B21F084E8809385
:10017000740003C084EC809374008FE19EE4E4E794
:10018000F0E002C00197C8F020812223DCF71816A6
:100190001906B4F480917100887F803511F088359C
:1001A00039F480917300FB01808380E090E0089532
:1001B00090E091958195910908958BEF9FEF0895B7
:1001C0008BEF9FEF08956093730084E88093740031
:1001D000E4E7F0E080818823ECF780917100887F6C
:1001E000883229F090E0919581959109089580E0F9
:1001F00090E00895CF92DF92EF92FF920F931F93BA
:10020000CF93DF932091880230918902232B09F448
:1002100048C0FC012281203809F446C0411551052F
:1002200009F445C06A017B01EC010190F081E02DE9
:100230000480F581E02D09958C01892B51F0E8812E
:10024000F9810680F781E02DCE010995802F912F4D
:1002500030C06A8170E0E881F9810084F185E02D89
:1002600041E0CE010995009721F58701EC0CFD1CBA
:10027000E881F9810284F385E02D40E050E0B80187
:10028000CE0109950097A9F40F5F1F4FE016F10604
:1002900079F7E881F9810680F781E02DCE01099593
:1002A00008C08CEF9FEF05C08FEF9FEF02C088E37F
:1002B0009FEFDF91CF911F910F91FF90EF90DF9013
:1002C000CF9008952091880230918902232B39F034
:1002D000FC018281803831F08CE99FEF08958CEF2A
:1002E0009FEF08958FEF9FEF089526E031E0FC0126
:1002F0003183208320E82283089520918802309161
:10030000890221153105B9F491B3936091BB90989E
:10031000909AE1E7F0E090819160908382E1809390
:10032000700084E08093740081E090E090938902F3
:100330008093880202C02DEF3FEFC9010895089510
:10034000E1E6F0E080818E7F80830895089508952E
:10035000FC01118610861782168215821482138280
:1003600012821386128688E191E09183808381E076
:1003700090E095878487089508958AB38F608ABB3B
:100380008BB38F608BBB089508956BBB0895089560
:10039000FC01118610861782168215821482138240
:1003A00012821386128686E291E0918380830895FB
:1003B00080E090E00895CF93DF93EC0196DF8EE626
:1003C00091E099838883DF91CF9108956F927F9216
:1003D0008F929F92AF92BF92CF92DF92EF92FF9255
:1003E0000F931F93CF93DF93E2E1F0E07F01E41AD4
:1003F000F50A2E153F050CF47901D801ED92FC9217
:100400002091880230918902232B09F4BFC0FC019E
:100410002281203809F4BDC08A01D72EC62EEC01F6
:10042000782E6D2E0190F081E02D0480F581E02D75
:100430000995892BA9F0E881F9810680F781E02DE3
:10044000CE0109958091940290919502DC01ED9185
:10045000FC910684F785E02D62E371E00995FFCFFA
:100460006A8170E0E881F9810084F185E02D40E047
:10047000CE010995892B71F080919402909195029B
:10048000DC01ED91FC910684F785E02D60E471E0DC
:100490000995FFCFE881F9810484F585E02D602F6F
:1004A000CE010995892BA9F0E881F9810680F781B1
:1004B000E02DCE0109958091940290919502DC0186
:1004C000ED91FC910684F785E02D6EE471E00995CD
:1004D000FFCFE881F9810480F581E02DCE010995F7
:1004E0008C01892B51F0E881F9810680F781E02D9C
:1004F000CE010995802F912F4EC06A8170E0E8816E
:10050000F9810084F185E02D41E0CE010995892B28
:1005100021F41E141F047CF031C08091940290914C
:100520009502DC01ED91FC910684F785E02D6CE5E8
:1005300071E00995FFCF0C2D1D2DC12CD12C8824E5
:100540008394912CA12CB12CBFEFCB1ADB0A482D40
:10055000592DEC14FD0411F04A2D5B2DE881F98131
:100560000284F385E02DB801872D962D09950F5F44
:100570001F4FEC14FD0441F7009769F4E881F981FD
:100580000680F781E02DCE01099505C08CEF9FEF25
:1005900002C08FEF9FEFDF91CF911F910F91FF90DE
:1005A000EF90DF90CF90BF90AF909F908F907F9013
:1005B0006F900895EF92FF920F931F93CF93DF9365
:1005C0002091880230918902232B09F466C0FC0136
:1005D0002281203809F464C0E42EF62EEC0101904B
:1005E000F081E02D0480F581E02D09958C01892BA7
:1005F00051F0E881F9810680F781E02DCE0109955F
:10060000802F912F4FC08A81682F70E0E881F98197
:100610000084F185E02D40E0CE0109958C01892B05
:1006200051F0E881F9810680F781E02DCE0109952E
:10063000802F912F37C0E881F9810484F585E02D62
:100640006F2DCE0109958C01892B51F0E881F9813C
:100650000680F781E02DCE010995802F912F22C0D1
:10066000E881F9810484F585E02D6E2DCE01099590
:100670008C01892B51F0E881F9810680F781E02D0A
:10068000CE010995802F912F0DC0E881F981068058
:10069000F781E02DCE01099505C08CEF9FEF02C0D8
:1006A0008FEF9FEFDF91CF911F910F91FF90EF9010
:1006B0000895EF92FF920F931F93CF93DF9300D093
:1006C0001F92CDB7DEB77C018FEF9FEF9B838A83AC
:1006D0008E010E5F1F4F21E030E04EE050E0BE0182
:1006E0006F5F7F4FC70172DE4981437E49836EE0B1
:1006F00070E0C7015FDF0F900F900F90DF91CF91F7
:100700001F910F91FF90EF9008956431710524F0CF
:100710006451710940E201C040E06A3071051CF08B
:1007200040616A5071096F70462B62E070E042CF01
:1007300008950F931F93CF93DF938C01FB01CAE0C1
:10074000D0E0CB01BE01CAD5282FCF01821B910971
:10075000BE01C4D5462F4295407F422B61E070E038
:10076000C80128DFDF91CF911F910F91089508955F
:1007700026E030E080E0880F816021503109D9F710
:1007800084BB15BA08950895FC011186108617825E
:10079000168215821482138212821386128680E8D2
:1007A00091E091838083148A89E0848781E0858742
:1007B000868782E0878784E0808B88E0818B80E277
:1007C000828B80E1838B0895DC0154968C91549741
:1007D000FD01E80FF11D868585BB1C96EC911C97E9
:1007E0004E2F50E04A30510508F08FC0FA01EA5B05
:1007F000FF4F87C58FEA94E00197F1F700C0000032
:1008000015BA8FED9EE20197F1F700C000007DC0A0
:100810008FE599E00197F1F700C0000015BA8FE26B
:100820009AE20197F1F700C000006FC08FE09EE0F0
:100830000197F1F700C0000015BA8FE795E2019724
:10084000F1F700C0000061C08FEB92E10197F1F772
:1008500000C0000015BA8FEC90E20197F1F700C0DC
:10086000000053C08FE697E10197F1F700C0000048
:1008700015BA8FE19CE10197F1F700C0000045C077
:100880008FE19CE10197F1F700C0000015BA8FE6F7
:1008900097E10197F1F700C0000037C08FEC90E2BC
:1008A0000197F1F700C0000015BA8FEB92E10197B4
:1008B000F1F700C0000029C08FE795E20197F1F73A
:1008C00000C0000015BA8FE09EE00197F1F700C06C
:1008D00000001BC08FE29AE20197F1F700C0000010
:1008E00015BA8FE599E00197F1F700C000000DC03F
:1008F0008FED9EE20197F1F700C0000015BA8FEA74
:1009000094E00197F1F700C0000054969C91549731
:100910009F5F54969C935497963019F454961C926A
:1009200010C0923079F128F4992359F09130B1F048
:100930006BC0943009F447C090F1953009F450C071
:1009400063C0E0919202F091930281816DEC869FE9
:10095000612D112466956695669557C0E0919202C7
:10096000F091930291816DEC969F612D1124669513
:1009700066956695660F862F880F880F680F961B01
:10098000692F43C0E0919202F091930282816DEC55
:10099000869F612D112466956695669536C0E09117
:1009A0009202F091930292816DEC969F612D112439
:1009B000669566956695660F862F880F880F680F77
:1009C000961B692F22C0E0919202F09193028381DD
:1009D0006DEC869F612D112466956695669515C010
:1009E000E0919202F091930293816DEC969F612DBC
:1009F0001124669566956695660F862F880F880F79
:100A0000680F961B692F01C06FEF80919A02909139
:100A10009B02DC01ED91FC910284F385E02D0995A8
:100A20008FE193E00197F1F700C000000895CCCE6C
:100A300008956930710524F029E0FC01248708C07D
:100A4000161617061CF0FC01148602C0FC01648710
:100A5000FC01848590E00895FC01518740877387ED
:100A600062870895089582B18F7982B983B18066D3
:100A700083B98AB788608ABF8AB780628ABF89B71C
:100A8000806689BF87E083BF85BD87B78E7F87BFBC
:100A900087B78F7B87BF0895089508951F920F929F
:100AA0000FB60F9211248F9380918F028F3048F0F0
:100AB00010928E0287B78E7F87BF82E080938D026F
:100AC00005C080918F028F5F80938F028F910F906E
:100AD0000FBE0F901F9018951F920F920FB60F9296
:100AE00011248F9380918C028F3048F010928B02EA
:100AF00087B78F7B87BF82E080938A0205C0809191
:100B00008C028F5F80938C028F910F900FBE0F909D
:100B10001F901895FC011186108617821682158287
:100B2000148213821282138612868EE891E09183DA
:100B3000808308958091920290919302009709F02A
:100B4000BDC308951F920F920FB60F9211240BB6DA
:100B50000F922F933F934F935F936F937F938F9356
:100B60009F93AF93BF93CF93EF93FF9380918B02AB
:100B7000811113C0C1E0C0938B0210928C0214BC8F
:100B800086B78F7B86BF87B7806487BF80919E02C0
:100B900090919F02CFDFC0938A02FF91EF91CF9196
:100BA000BF91AF919F918F917F916F915F914F9185
:100BB0003F912F910F900BBE0F900FBE0F901F9083
:100BC00018958091920290919302009709F060C36A
:100BD00008951F920F920FB60F9211240BB60F9229
:100BE0002F933F934F935F936F937F938F939F9335
:100BF000AF93BF93CF93EF93FF9380918E028111B8
:100C000013C0C1E0C0938E0210928F0212BE86B74D
:100C10008E7F86BF87B7816087BF80919E0290914B
:100C20009F02CFDFC0938D02FF91EF91CF91BF91D3
:100C3000AF919F918F917F916F915F914F913F9174
:100C40002F910F900BBE0F900FBE0F901F90189515
:100C50000895FC017383628355834483378326831D
:100C600014981C9A8AB783608ABF89B7806189BF4C
:100C70000895DC011A96ED91FC911B97309729F0AD
:100C800018968D919C9119970995089508951F9232
:100C90000F920FB60F9211240BB60F922F933F9322
:100CA0004F935F936F937F938F939F93AF93BF9374
:100CB000EF93FF938091960290919702DC01ED9162
:100CC000FC910680F781E02D0995FF91EF91BF918E
:100CD000AF919F918F917F916F915F914F913F91D4
:100CE0002F910F900BBE0F900FBE0F901F90189575
:100CF000FC011186108617821682158214821382D7
:100D00001282138612868CE991E091838083089584
:100D100008958B9A8A9810929B0088E980939A0094
:100D200086E080939D001092980088E0809399005F
:100D300008950895EBE9F0E080818823ECF7809135
:100D40009C000895EBE9F0E0808185FFFDCF609382
:100D50009C000895CF93DF93FB019081992369F064
:100D6000DB011196EBE9F0E0CCE9D0E0808185FF72
:100D7000FDCF98839D919111F9CFDF91CF91089587
:100D800008951F920F920FB60F9211240BB60F9277
:100D90002F933F934F935F936F937F938F939F9383
:100DA000AF93BF93EF93FF9360919C008091920269
:100DB00090919302009709F45CC0209198023091C1
:100DC00099022115310509F454C0643661F130F4FB
:100DD00080ED860F8A3008F440C04BC06D3639F084
:100DE000653739F0683609F044C068D242C050D245
:100DF00040C060910001709101016F5F7F4FC90198
:100E000018DE682F80930001909301018091940275
:100E100090919502605DDC01ED91FC910484F58573
:100E2000E02D099526C0609100017091010161508B
:100E30007109C901FEDD682F8093000190930101C3
:100E40008091940290919502605DDC01ED91FC919E
:100E50000484F585E02D09950CC080919A0290914B
:100E60009B026053DC01ED91FC910284F385E02D3F
:100E70000995FF91EF91BF91AF919F918F917F91D4
:100E80006F915F914F913F912F910F900BBE0F90FB
:100E90000FBE0F901F901895FC01118610861782C7
:100EA00016821582148213821282138612868AEAAF
:100EB00091E0918380830895CED180E090E0089501
:100EC000CF93DF93F894C4E9D2E088819981DC0163
:100ED000ED91FC910480F581E02D20E030E040E0D0
:100EE00050E060E070E009958A819B81DC01ED9122
:100EF000FC910480F581E02D20E030E040E050E0FE
:100F000060E070E009958C819D81DC01ED91FC91A0
:100F10000480F581E02D20E030E040E050E060E02A
:100F200070E009958E819F81DC01ED91FC91048038
:100F3000F581E02D20E030E040E050E060E070E03E
:100F4000099588859985DC01ED91FC910480F581F6
:100F5000E02D20E030E040E050E060E070E00995F6
:100F60008A859B85DC01ED91FC910480F581E02D63
:100F700020E030E040E050E060E070E009958091D2
:100F8000900290919102B9D97894DF91CF91089510
:100F9000CF93DF93CDB7DEB7C55FD1090FB6F89415
:100FA000DEBF0FBECDBF2FEF89E698E12150804014
:100FB0009040E1F700C000008E010F5F1F4FC80195
:100FC0006BDF5E012DE0A20EB11CC50191DE7E013A
:100FD00089E1E80EF11CC701EED94E019CE1890EB2
:100FE000911CC40131D16E0120E2C20ED11CC60198
:100FF000CBDB3E0185E3680E711CC301C9D92E010C
:1010000091E4490E511CC201A3D91E012FE4220E06
:10101000311CC1017FDDF0929102E092900290922A
:10102000930280929202E4E9F2E011830083B3829A
:10103000A282D582C48277826682518640863386B8
:1010400022868FEF99E628E1815090402040E1F719
:1010500000C0000035DF8FEF99E628E18150904015
:101060002040E1F700C0000088E68B8F8FEF9FEFF4
:10107000CF50DF4F99838883C15FD0406AEB71E026
:10108000C80168DE64EF71E0C80164DE6EEB71E0F8
:10109000C80160DEC7010DDB8FEF91EE24E08150C7
:1010A00090402040E1F700C0000000511F4F23E0B6
:1010B00030E040E050E0BE016D507F4F80919002E3
:1010C0009091910283D9892B09F08EC0CD50DF4FCA
:1010D0008881C35FD040982F92959F70990F292FD8
:1010E000220F220F920F8F70980FCC50DF4F888104
:1010F000C45FD040282F22952F70220F322F330F3C
:10110000330F230F8F70280FE0919202F09193021A
:10111000CB50DF4F8881C55FD04085FB332730F946
:10112000330F330F532F550F550F530F84FB3327B6
:1011300030F9330F432F440F440F340F350F8F70A6
:10114000830F818322839383CB50DF4F8881C55FD8
:10115000D0401F928F93CC50DF4F8881C45FD04026
:101160001F928F93CD50DF4F8881C35FD0401F9275
:101170008F938AE292E09F938F93065911091F93F0
:101180000F93DCD0B801CE010196E4DDE09192022C
:10119000F091930283811F928F9382811F928F938C
:1011A00081811F928F9383E592E09F938F931F938A
:1011B0000F93C4D0B801CE010196CCDDA4016CE53B
:1011C00077E0C50149DC8FEF91EE24E0815090403B
:1011D0002040E1F700C000000FB6F894DEBF0FBE5C
:1011E000CDBF01E010E027C066E772E0CE010196B6
:1011F000B1DDFFCF80918A02882349F06D8D70E0C8
:10120000809190029091910280DA10928A028091EE
:101210008D02882349F06E8D70E08091900290914C
:10122000910287DA10928D0263E070E0CE01809621
:1012300000DC00E010E0CE018096C6DA0F5F1F4FA1
:101240000F341105C1F7D6CFFC0188E180831382EA
:10125000128211820895FC0193819B33B1F4828143
:101260008B3379F42181422F50E0808190E0019707
:101270004817590711F4118202C02F5F218312828F
:1012800002C08F5F8283138208959F5F93830895C6
:10129000FC0192819B3379F42181422F50E08081BF
:1012A00090E001974817590711F4118202C02F5F8F
:1012B0002183128208959F5F92830895FC0191819A
:1012C000492F50E0208130E0215031094217530767
:1012D00011F4118208959F5F9183089597FB072E63
:1012E00016F4009406D077FD08D014D007FC05D082
:1012F0003EF4909581959F4F0895709561957F4F2D
:101300000895EE0FFF1F0024001C0BBE0790F691FE
:10131000E02D0994AA1BBB1B51E107C0AA1FBB1FEC
:10132000A617B70710F0A61BB70B881F991F5A9571
:10133000A9F780959095BC01CD0108950F931F9357
:10134000CF93DF93CDB7DEB72E970FB6F894DEBFFD
:101350000FBECDBF0D891E8986E08C831A83098359
:101360008FEF9FE79E838D83AE01475E5F4F6F894E
:10137000788DCE01019610D0EF81F885E00FF11F36
:1013800010822E960FB6F894DEBF0FBECDBFDF9150
:10139000CF911F910F9108952F923F924F925F929C
:1013A0006F927F928F929F92AF92BF92CF92DF9275
:1013B000EF92FF920F931F93CF93DF93CDB7DEB7DA
:1013C0002B970FB6F894DEBF0FBECDBF6C017B012B
:1013D0008A01FC0117821682838181FFBFC1CE0181
:1013E00001963C01F6019381F70193FD859193FFEE
:1013F00081917F01882309F4ADC1853239F493FDD1
:10140000859193FF81917F01853221F4B60190E0AF
:10141000D6D1E8CF912C212C312CFFE1F315D8F057
:101420008B3279F038F4803279F08332A1F4232DB5
:1014300020611DC08D3261F0803369F4232D21605D
:1014400016C0832D8260382EE32DE4603E2E2AC024
:10145000F32DF8601DC037FC2DC020ED280F2A3079
:1014600040F08E32B9F436FC75C1232D2064322E43
:1014700019C036FE06C08AE0989E200D1124922ED7
:1014800011C0EAE02E9E200D1124222EF32DF062D1
:101490003F2E08C08C3621F4832D8068382E02C080
:1014A000883641F4F70193FD859193FF81917F0187
:1014B0008111B3CF982F9F7D9554933028F40C5F02
:1014C0001F4F9FE399830DC0833631F0833771F04E
:1014D000833509F055C020C0F801808189830E5FF3
:1014E0001F4F88248394912C530112C02801F2E0ED
:1014F0004F0E511CF801A080B18036FE03C0692D4B
:1015000070E002C06FEF7FEFC5014ED14C01820148
:10151000F32DFF773F2E15C0280122E0420E511C0B
:10152000F801A080B18036FE03C0692D70E002C0D2
:101530006FEF7FEFC5012DD14C01F32DF0683F2EE9
:10154000820133FC19C0822D90E088169906A0F420
:10155000B60180E290E033D12A94F5CFF50137FC53
:10156000859137FE81915F01B60190E028D121106D
:101570002A9421E0821A91088114910479F7E1C03C
:10158000843611F0893639F5F80137FE07C06081DD
:101590007181828193810C5F1F4F08C060817181CE
:1015A000072E000C880B990B0E5F1F4FF32DFF7653
:1015B0003F2E97FF09C090958095709561957F4F5C
:1015C0008F4F9F4FF0683F2E2AE030E0A30133D1C8
:1015D000882E861844C0853731F4232D2F7EB22EF5
:1015E0002AE030E025C0932D997FB92E8F36C1F0C7
:1015F00018F4883579F0AEC0803719F0883721F0BB
:10160000A9C0E92FE061BE2EB4FE0DC0FB2DF46031
:10161000BF2E09C034FE0AC0292F2660B22E06C094
:1016200028E030E005C020E130E002C020E132E0F7
:10163000F801B7FE07C060817181828193810C5FE0
:101640001F4F06C06081718180E090E00E5F1F4FE8
:10165000A301F1D0882E8618FB2DFF773F2E36FE92
:101660000DC0232D2E7FA22E891458F434FE0BC0FA
:1016700032FC09C0832D8E7EA82E05C0B82CA32C69
:1016800003C0B82C01C0B92CA4FE0FC0FE01E80DA8
:10169000F11D8081803321F49A2D997EA92E09C0F5
:1016A000A2FE06C0B394B39404C08A2D867809F0D4
:1016B000B394A3FC10C0A0FE06C0B21480F4280CA2
:1016C000922C9B180DC0B21458F4B60180E290E041
:1016D00076D0B394F8CFB21418F42B1802C0982C1B
:1016E000212CA4FE0FC0B60180E390E068D0A2FEDA
:1016F00016C0A1FC03C088E790E002C088E590E036
:10170000B6010CC08A2D867851F0A1FE02C08BE292
:1017100001C080E2A7FC8DE2B60190E050D08914B0
:1017200030F4B60180E390E04AD09A94F8CF8A94DE
:10173000F301E80DF11D8081B60190E040D08110E9
:10174000F6CF222009F44ECEB60180E290E037D0E9
:101750002A94F7CFF6018681978102C08FEF9FEF21
:101760002B960FB6F894DEBF0FBECDBFDF91CF91A1
:101770001F910F91FF90EF90DF90CF90BF90AF90AF
:101780009F908F907F906F905F904F903F902F90A1
:101790000895FC010590615070400110D8F78095C4
:1017A00090958E0F9F1F0895FC016150704001902D
:1017B0000110D8F7809590958E0F9F1F08950F9375
:1017C0001F93CF93DF93FB01238121FD03C08FEF94
:1017D0009FEF2CC022FF16C046815781248135819E
:1017E0004217530744F4A081B1819D012F5F3F4F01
:1017F000318320838C93268137812F5F3F4F37833E
:10180000268314C08B01EC01FB010084F185E02DDF
:101810000995892BE1F6D80116968D919C91179721
:10182000019617969C938E931697CE01DF91CF91D8
:101830001F910F910895FA01AA27283051F1203104
:1018400081F1E8946F936E7F6E5F7F4F8F4F9F4F54
:10185000AF4FB1E03ED0B4E03CD0670F781F891F96
:101860009A1FA11D680F791F8A1F911DA11D6A0F64
:10187000711D811D911DA11D20D009F468943F9117
:101880002AE0269F11243019305D3193DEF6CF0116
:101890000895462F4770405D4193B3E00FD0C9F7DC
:1018A000F6CF462F4F70405D4A3318F0495D31FD49
:1018B0004052419302D0A9F7EACFB4E0A69597959C
:1018C000879577956795BA95C9F700976105710572
:1018D00008959B01AC010A2E0694579547953795BC
:1018E0002795BA95C9F7620F731F841F951FA01D16
:0618F0000895F894FFCFFB
:1018F600060000000000FA0062016F0084008A0002
:10190600B400E300000000009F01A701A001A601AA
:101916002C0500000000BC01C701BD01C4012C0557
:10192600C5014552524F522048455245202D31009F
:101936004552524F522048455245202D32004552BD
:10194600524F522048455245202D33004552524FA2
:10195600522048455245202D340000000000D80191
:1019660062016F0084008A00B400E30000000000FA
:10197600B703C303B80317052C05000000003205A2
:101986004D0533054C052C050000000028064606CB
:10199600290639062C05000000008806C0068906BF
:1019A60099062C059A06A206AA060D0A0D0A3D3DC1
:1019B6003D3D3D3D3D3D3D3D3D3D3D3D3D3D3D3D51
:1019C6003D3D3D3D3D3D3D3D3D3D3D3D3D3D3D3D41
:1019D6003D3D3D3D3D3D3D3D3D3D3D3D3D3D3D3D31
:1019E6003D0D0A003D3D3D3D3D3D3D3D3D3D3D3DC1
:1019F600202053797374656D20436C6F636B20539D
:101A06007461727420203D3D3D3D3D3D3D3D3D3D73
:101A16003D3D3D3D3D3D3D0D0A003E3E66726F6DCE
:101A26002044533332333120203A20203078253079
:101A36003278203078253032782030782530327868
:101A46000D0A003E3E66726F6D2073797374656D84
:101A560020203A2020253032643A253032643A2557
:101A66003032640D0A0052656164204572726F72ED
:081A760021212121200D0A00AD
:00000001FF
